:020000040800F2
:10000000600B0020650100086D0100086F01000809
:10001000710100087301000875010008000000006C
:100020000000000000000000000000007701000850
:1000300079010008000000007B0100087D01000834
:100040007F0100087F0100087F0100087F01000890
:100050007F0100087F0100087F0100087F01000880
:100060007F0100087F0100087F0100087F01000870
:100070007F0100087F0100087F0100087F01000860
:100080007F0100087F0100087F0100087F01000850
:100090007F0100087F0100087F0100087F01000840
:1000A0007F0100087F0100087F0100087F01000830
:1000B0007F0100082D0C00087F0100087F01000867
:1000C0007F0100087F0100087F0100087F01000810
:1000D0007F0100087F010008BD1000087F010008B3
:1000E0007F0100087F0100087F0100080000000078
:1000F0000000000000000000000000000000000000
:1001000000000000000000007F0100087F010008DF
:100110007F0100087F0100087F0100087F010008BF
:100120007F0100087F0100087F0100087F010008AF
:100130007F0100087F0100087F0100087F0100089F
:100140007F0100087F0100087F0100087F0100088F
:10015000DFF80CD000F02EF80048004765140008C6
:10016000600B00200648804706480047FEE7FEE790
:10017000FEE7FEE7FEE7FEE7FEE7FEE7FEE7FEE757
:10018000F50A00085101000830B50B460146002071
:100190002022012409E021FA02F59D4205D303FA49
:1001A00002F5491B04FA02F52844151EA2F10102CA
:1001B000F1DC30BD064C074D06E0E06840F001037D
:1001C00094E8070098471034AC42F6D3FFF7C4FF19
:1001D00098150008B815000870B50025402117488B
:1001E00000F015F91021154800F00FF900BF600666
:1001F000040E2021114800F008F920210F4800F0DA
:1002000006F980210D4800F0F7F8012802D144F0EA
:10021000010401E004F0FE04681CC5B2052001F0F1
:1002200047F9082DE3DB1021044800F0F0F8FF2C1B
:1002300001D1FF2070BD0248005DFBE700080140CE
:10024000F000002010B50446204601F06FF910B907
:10025000204601F06BF910BD01B542F22832009939
:1002600051434FF0E0225161002191610121116160
:1002700000BF4FF0E021086900F0010119B100F45E
:1002800080310029F5D000214FF0E0221161916109
:1002900008BD01B5009901EBC1014FF0E0225161A9
:1002A000012111610021916100BF4FF0E021086937
:1002B00000F0010119B100F480310029F5D00021CE
:1002C0004FF0E0221161916108BD4FF0E02000691C
:1002D00020F002004FF0E0210861002008618861F1
:1002E00070472DE9F041024600250026002000233A
:1002F0000024002791F803C00CF00F0591F803C00B
:100300000CF0100CBCF1000F03D091F802C04CEAC5
:10031000050591F800C0BCF1000F31D01468002031
:100320002BE04FF0010C0CFA00F3B1F800C00CEA1E
:1003300003069E4220D183004FF00F0C0CFA03F706
:10034000BC4305FA03FC4CEA040491F803C0BCF179
:10035000280F06D14FF0010C0CFA00FCC2F814C0B3
:100360000AE091F803C0BCF1480F05D14FF0010C31
:100370000CFA00FCC2F810C0401C0828D1D314604D
:10038000B1F800C0BCF1FF0F34DD546800202EE04E
:1003900000F1080C4FF0010808FA0CF3B1F800C0A6
:1003A0000CEA03069E4221D183004FF00F0C0CFA99
:1003B00003F7BC4305FA03FC4CEA040491F803C0BC
:1003C000BCF1280F05D100F1080C08FA0CF8C2F8AE
:1003D000148091F803C0BCF1480F07D100F1080C5C
:1003E0004FF0010808FA0CF8C2F81080401C0828E9
:1003F000CED35460BDE8F0810246002093680B40E4
:100400000BB1012000E0002070474161704701619D
:100410007047000008B50121042000F0F1F8B02079
:10042000ADF8000010208DF8030003208DF80200C5
:1004300069460C48FFF755FFB0210A48FFF7E7FF70
:100440000121042000F0DCF84020ADF80000042079
:100450008DF8030001208DF8020069460148FFF77E
:1004600040FF08BD0008014070B50025164804781B
:1004700010211648FFF7C9FF00BF04F0800020B12B
:1004800040211248FFF7C3FF03E040210F48FFF768
:10049000BCFF20210D48FFF7B8FF20210B48FFF7D4
:1004A000B6FF6006040E681CC5B20520FFF7F1FE1A
:1004B000082DE2DB10210548FFF7A9FF4021034882
:1004C000FFF7A5FF70BD00000001002000080140FB
:1004D00010B5FFF781FE1749087008460078FF281D
:1004E0001FD015480078097888421AD01348007840
:1004F00010490978884214D00E48007800280BDD96
:100500000C480078112807DA4FF496610948007802
:10051000401E0B4A42F820100648017809A000F05E
:10052000C9FE05480078054908700248007802496C
:10053000087010BD0101002002010020030100200D
:100540001C0300205472692D3E25640D0A00000032
:1005500070B5002100230F22C47804B3154C246821
:1005600004F4E064C4F5E064210AC1F10403CA4064
:10057000447804FA03F184781440214309010E4CB5
:100580000678A155047804F01F050124AC400578D5
:100590006D11AD0005F1E025C5F8004109E00478D2
:1005A00004F01F050124AC40044D0678761145F88F
:1005B000264070BD0CED00E000E400E080E100E0CA
:1005C00029B1064AD2690243044BDA6104E0034AC6
:1005D000D2698243014BDA6170470000001002408B
:1005E00029B1064A12690243044B1A6104E0034A26
:1005F00012698243014B1A617047000000100240EB
:1006000029B1064A92690243044B9A6104E0034A05
:1006100092698243014B9A617047000000100240CA
:1006200029B1064AD2680243044BDA6004E0034A67
:10063000D2688243014BDA6070470000001002402C
:100640002DE9F0410021002200250023002600248E
:1006500000278C46DFF86081D8F8048008F00C0190
:1006600021B1042907D0082959D109E0DFF84C81CC
:10067000C0F8008058E0DFF84881C0F8008053E0FF
:10068000DFF83481D8F8048008F47012DFF828818C
:10069000D8F8048008F48035920C0D2A01D0921C01
:1006A00000E0062235B9DFF81C8102FB08F8C0F82B
:1006B000008033E0DFF80081D8F82C8008F4803621
:1006C000DFF8F480D8F82C8008F00F0808F1010456
:1006D00046B9DFF8EC80B8FBF4F808FB02F8C0F884
:1006E00000801BE0DFF8D080D8F82C80C8F3031816
:1006F00008F10107DFF8C080D8F82C80C8F3032880
:1007000008F1020CDFF8B880B8FBF7F808FB0CF82A
:10071000B8FBF4F808FB02F8C0F8008004E0DFF84A
:100720009C80C0F8008000BF00BFDFF88C80D8F844
:10073000048008F0F0010909DFF88C8018F8013016
:10074000D0F8008028FA03F8C0F80480DFF8688049
:10075000D8F8048008F4E061090ADFF86C8018F822
:100760000130D0F8048028FA03F8C0F80880DFF8D8
:100770004880D8F8048008F46051C90ADFF848803E
:1007800018F80130D0F8048028FA03F8C0F80C807B
:10079000DFF82480D8F8048008F44041890BDFF8A2
:1007A0002C8018F80130D0F80C80B8FBF3F8C0F8B2
:1007B0001080BDE8F08100000010024000127A00B5
:1007C00040787D0100093D00140000202400002035
:1007D00070B504460D460648055504EB440005492E
:1007E00001EB800393E8070000F06DF870BD000096
:1007F0000A0300203000002010B5002416E00D4848
:10080000005D002805DD0B48005D401E09490855C4
:100810000BE004EB4400084901EB800393E8070078
:1008200000F04AF8002003490855641C102CE6D358
:1008300010BD00000A0300203000002038B500245D
:1008400032E004EB44011A4A52F821000121FFF77B
:10085000D7FE04EB4400164901EB80000089ADF897
:10086000000010208DF8030003208DF8020004EB37
:1008700044010F4A02EB810148686946FFF731FDE8
:1008800004EB44020A4B03EB8202118904EB44029D
:1008900003EB82025068FFF7BAFD002005490855B6
:1008A0000520FFF7D9FC641C102CCAD338BD00000A
:1008B000300000200A03002007B5BDF80810019899
:1008C000FFF7A5FD0EBD07B5BDF808100198FFF7AD
:1008D0009CFD0EBD10B500F001F810BD0CB5002058
:1008E000019000903F48006840F480303D49086026
:1008F00000BF3C48006800F4003000900198401CA4
:100900000190009818B90198B0F5A06FF1D1354861
:10091000006800F4003010B10120009001E00020D8
:100920000090009801285CD12F48006840F010002A
:100930002D4908600846006820F00300086008465A
:10094000006840F002000860264840682549486079
:100950000846406848600846406840F48060486047
:100960000846C06A214908401E49C8620846C06A54
:100970001F4908431B49C8620846006840F0806070
:10098000086000BF1748006800F000600028F9D038
:100990001448406820F47C101249486008464068BA
:1009A00040F4E81048600846006840F08070086035
:1009B00000BF0C48006800F000700028F9D009481A
:1009C000406820F00300074948600846406840F04E
:1009D0000200486000BF0348406800F00C0008288F
:1009E000F9D10CBD001002400020024000F0FEFFD3
:1009F00044060100F0B5002100200023002400225D
:100A000000250026354F7F6807F00C0121B104292D
:100A100008D008294BD10BE0314FDFF8C8C0CCF823
:100A200000704AE0304FDFF8BCC0CCF8007044E002
:100A30002A4F7F6807F47010284F7F6807F48033CF
:100A4000800C0D2801D0801C00E0062033B9274F10
:100A50004743DFF890C0CCF8007027E01F4FFF6AD3
:100A600007F480341D4FFF6A07F00F077A1C44B962
:100A70001D4FB7FBF2F74743DFF868C0CCF80070B2
:100A800014E0164FFF6AC7F303177D1C134FFF6A6C
:100A9000C7F30327BE1C144FB7FBF5F77743B7FB2B
:100AA000F2F74743DFF83CC0CCF8007005E00C4F8C
:100AB000DFF830C0CCF8007000BF00BF074F7F6880
:100AC000C7F30317DFF828C01CF80710054F3F686D
:100AD000CF40DFF810C0CCF80070F0BD001002402D
:100AE00000127A000000002040787D0100093D00DE
:100AF0000400002010B51648006840F001001449B9
:100B00000860084640681349084011494860084693
:100B10000068114908400E4908600846006820F442
:100B2000802008600846406820F4FE0048600846BF
:100B3000006820F0A05008604FF47F00886000201B
:100B4000C862FFF7C7FE4FF000600449086010BD9F
:100B5000001002400000FFF0FFFFF6FE08ED00E08D
:100B600070B5FFF747FFFFF7B0FBFFF767FEFFF732
:100B700051FC6420FFF770FBFFF776FC322000F099
:100B8000A1F81A4800686422B0FBF2F1B1F1807F4D
:100B900000D31DE021F07F40401E4FF0E022506165
:100BA00050170F22002807DA13071D0E104B00F014
:100BB0000F04241F1D5503E013071C0E0D4B1C547E
:100BC00000BF00204FF0E02290610720106100BFBD
:100BD0004FF4E13000F026FA07A000F06BFB034869
:100BE00001680BA000F066FB002070BD0000002033
:100BF00018ED00E000E400E0436F6E66696775720F
:100C0000652046696E6973686564210D0A000000FD
:100C100053797374656D436F7265436C6F636B3AA0
:100C2000202564487A2E0D0A0000000010B500242B
:100C30000121164800F078F9012825D10121134837
:100C400000F06EF8FFF744FCFFF7D6FD00BF19E097
:100C50000F4850F82400401C0D4941F82400084674
:100C600050F82400B0F5966F0BD9611C09A000F074
:100C700021FBE0B23221FFF7ABFD0020044941F82F
:100C80002400641C102CE3D310BD000000040040BD
:100C90001C030020522564205472690D0A000000D4
:100CA00008B51D208DF8000001208DF801000020FE
:100CB0008DF8020001208DF803006846FFF748FC1C
:100CC00008BD00003EB5044601210220FFF778FC74
:100CD000124800F035F804EB4400C0EBC4104FF6A6
:100CE000FF7101EAC000ADF804004720ADF8000034
:100CF0000020ADF80600ADF802006946074800F094
:100D00002DF901221146054800F01FF90121034881
:100D100000F009F8FFF7C4FF3EBD000000040040EA
:100D2000CA430282704721B1028842F00102028068
:100D300004E002884FF6FE731A40028070470000FC
:100D400010B504466848844208D10121C014FFF759
:100D500067FC0021E014FFF763FCC4E0B4F1804FAE
:100D600008D101210846FFF73BFC00210120FFF7D5
:100D700037FCB8E05D48844208D101210220FFF72A
:100D80002FFC00210220FFF72BFCACE058488442E6
:100D900008D101210420FFF723FC00210420FFF7E4
:100DA0001FFCA0E05348844208D101210820FFF72E
:100DB00017FC00210820FFF713FC94E04E48844202
:100DC00008D101211020FFF70BFC00211020FFF7B4
:100DD00007FC88E04948844208D101212020FFF720
:100DE000FFFB00212020FFF7FBFB7CE0444884420E
:100DF00008D101214014FFF713FC00216014FFF714
:100E00000FFC70E03F48844209D10121C804FFF77C
:100E100007FC00214FF40020FFF702FC63E03A4892
:100E2000844209D101210805FFF7FAFB00214FF4A4
:100E30008010FFF7F5FB56E03448844209D10121C8
:100E40004805FFF7EDFB00214FF40010FFF7E8FB2A
:100E500049E02F48844208D101214020FFF7C0FB20
:100E600000214020FFF7BCFB3DE02A48844208D126
:100E700001218020FFF7B4FB00218020FFF7B0FBA9
:100E800031E02548844208D101218015FFF7A8FBF5
:100E90000021A015FFF7A4FB25E02048844209D1DA
:100EA00001210804FFF7BCFB00214FF48030FFF75D
:100EB000B7FB18E01A48844209D101214804FFF722
:100EC000AFFB00214FF40030FFF7AAFB0BE0154801
:100ED000844208D101218804FFF7A2FB00214FF4CE
:100EE0008020FFF79DFB10BD002C01400004004056
:100EF00000080040000C00400010004000140040BA
:100F000000340140004C01400050014000540140B9
:100F100000180040001C004000200040004001403C
:100F2000004401400048014030B502460020002343
:100F30000024158A05EA0103958905EA010413B125
:100F40000CB1012000E0002030BD1AB183890B43B1
:100F5000838102E083898B4383817047002202886A
:100F60001D4B98420ED01D4B98420BD0B0F1804FD4
:100F700008D01B4B984205D01A4B984202D01A4B0E
:100F8000984204D14FF68F731A404B881A43174B7F
:100F9000984207D0164B984204D04FF6FF431A40B0
:100FA000CB881A4302808B8883850B8803850A4B84
:100FB00098420BD0094B984208D00E4B984205D06E
:100FC0000D4B984202D00D4B984201D10B7A03860B
:100FD0000123838270470000002C0140003401404F
:100FE0000004004000080040000C004000100040D9
:100FF000001400400040014000440140004801400E
:1010000008B526208DF800000A208DF80100002088
:101010008DF8020001208DF803006846FFF798FA6A
:1010200008BD000010B586B0044601210520FFF779
:10103000E7FA01214804FFF7C3FA0420ADF81400D1
:1010400018208DF8170003208DF8160005A91948FF
:10105000FFF747F90820ADF8140048208DF8170075
:1010600003208DF8160005A91248FFF73AF90194FC
:101070000020ADF80800ADF80A00ADF80C00ADF89E
:1010800010000820ADF80E0001A90B4800F0A2F8EE
:10109000FFF7B6FF0121084800F040F8402106485C
:1010A00000F024F8012240F22661034800F06CF8B9
:1010B00006B010BD000801400044004008B540F2F1
:1010C0002661094800F036F868B140F2266106480A
:1010D00000F015F8684600F007FA20B19DF80010FE
:1010E000014800F0E3F808BD0044004001F400723C
:1010F000B2F5007F00D100BFCA430280704710B52F
:101100000022002340F66A14A14200D100BF0A1257
:1011100001249440A3B2DC43048010BD21B1828934
:1011200042F40052828104E082894DF6FF731A4036
:101130008281704770B502460024002300250020FC
:1011400040F66A16B14200D100BFC1F3421501F06A
:101150001F03012606FA03F3012D02D196893340BD
:1011600006E0022D02D1168A334001E0968A334010
:101170000C12012606FA04F41688344013B10CB19F
:10118000012000E0002070BDF0B5034600240026D9
:101190000025002040F66A17B94200D100BF18466A
:1011A000C1F3421401F01F06012707FA06F5012CCE
:1011B00001D10C3004E0022C01D1103000E01430D9
:1011C0001AB107682F43076002E00768AF43076062
:1011D000F0BD00002DE9F04786B005460E4600241C
:1011E000A24600BFA1460027B08900B100BF2F462C
:1011F0002C8A4CF6FF700440F08804432C82AC89A2
:101200004EF6F3100440B0883189084371890843D1
:101210000443AC81AC8A4FF6FF400440B0890443DC
:10122000AC8201A8FFF70CFA1F48874202D1DDF813
:1012300010A001E0DDF80CA0A88900F4004040B146
:101240000AEBCA0000EB0A1031684900B0FBF1F864
:1012500007E00AEBCA0000EB0A1031688900B0FB16
:10126000F1F86420B8FBF0F004012009642101FBCF
:101270001089A88900F4004040B1322000EBC90079
:10128000B0FBF1F000F00700044308E0322000EB6F
:1012900009106421B0FBF1F000F00F0004432C8131
:1012A00006B0BDE8F087000000380140C1F3080235
:1012B000828070470FB4054B10B503A9044A029809
:1012C00000F018F810BC5DF814FB00004914000889
:1012D0002800002002E008C8121F08C1002AFAD125
:1012E00070477047002001E001C1121F002AFBD1A6
:1012F000704700002DE9FF4F89B09B46044600254A
:1013000006E025280BD05A460B999047641C6D1CAB
:1013100020780028F5D10DB02846BDE8F08F0027D1
:10132000B8460122474900E0074314F8013F203B3B
:1013300002FA03F00842F7D120782E2819D114F8C8
:10134000010F47F004072A280ED06FF02F022078F3
:10135000A0F1300109290CD808EB880102EB41010A
:1013600000EB0108641CF2E70A98641C50F8048B37
:101370000A9020780028CED0642808D0692806D0AA
:1013800075281ED05A460B9990476D1C58E00A9953
:101390004FF00A0901C90A91002802DA40422D21C2
:1013A00002E0390504D52B218DF82010012103E03E
:1013B000F90704D02021F7E78A4608AE0DE00021A6
:1013C000FAE70A994FF00A0901C90A91F7E7494675
:1013D000FEF7DAFE303106F8011D0028F7D1ADEB3B
:1013E000060000F12009780701D44FF00108C84534
:1013F00002DDA8EB090000E000208046002706E09F
:1014000008A85A46C05D0B9990476D1C7F1C574534
:10141000F6DB04E030205A460B9990476D1CB8F17A
:101420000001A8F10108F5DC05E016F8010B5A46A9
:101430000B9990476D1CB9F10001A9F10109F4DC89
:10144000641C65E70928010070B504460D460A2CA6
:1014500002D10D20FEF7F6FEE0B2FEF7F3FE2046C5
:1014600070BD0000FFF77CFB18B104A0FFF722FF5E
:1014700002E008A0FFF71EFF00BFFEE75379737478
:10148000656D20496E697469616C204661696C659F
:10149000640D0A0053797374656D20496E6974692F
:1014A000616C205375636365737365640D0A000096
:1014B00001B5009901EBC1014FF0E022516101211A
:1014C00011610021916100BF4FF0E021086900F037
:1014D000010119B100F480310029F5D000214FF04D
:1014E000E0221161916108BD01460F48B0F8000289
:1014F0000D4AB2F8022290420FD00B48B0F8000219
:10150000094A105C08701046B0F80002401CC0F395
:101510000800A2F80002012070470020024A82F869
:10152000040200BFF8E700000401002001B51848DC
:10153000B0F80202401CC0F308001549B1F80012CF
:10154000884222D09DF800001149B1F80212104AD9
:1015500050541046B0F80202401CC0F30800114677
:10156000A1F80202084690F8040260B96846FFF745
:10157000BBFF40B10120064981F804029DF800102C
:101580000448FFF793FE012008BD0020FCE700009F
:101590000401002000440040B815000800000020AD
:1015A00004010000D4120008BC1600080401002049
:1015B0005C0A0000E412000800A24A0400000000D7
:1015C00000000000010203040607080900000000F3
:1015D00001020304010203040607080902040608C5
:1015E00000000000000000000400000000080140AE
:1015F000010000000400000000080140020000009B
:101600000400000000080140001000000800000075
:10161000000C01402000000008000000000C014008
:101620004000000008000000000C014080000000A5
:1016300008000000000C014000010000080000004C
:10164000000C0140000200001000000000100140EA
:101650000100000010000000001001400200000026
:101660001000000000100140040000001000000005
:1016700000100140080000001000000000100140B0
:1016800000040000100000000010014000080000ED
:1016900010000000001001400010000010000000C9
:1016A00000100140002000000D0E0F10090A0B0C65
:0C16B00006050708040302010EFFFFFFFF
:04000005080001519D
:00000001FF
