:020000040800F2
:1000000088080020ED010008690400086104000868
:10001000650400082D030008F50900080000000031
:10002000000000000000000000000000F5050008CE
:100030004503000800000000DD040008E106000898
:10004000070200080702000807020008070200086C
:1000500007020008070200084703000849030008D8
:10006000070200080702000807020008070200084C
:10007000070200080702000807020008070200083C
:10008000070200080702000807020008070200082C
:10009000070200080702000807020008070200081C
:1000A000070200080702000807020008070200080C
:1000B00007020008070200080702000807020008FC
:1000C00007020008070200080702000807020008EC
:1000D0000702000807020008FD07000807020008E1
:1000E00007020008070200080702000800000000DD
:1000F0000000000000000000000000000000000000
:1001000000000000000000000702000807020008CD
:10011000070200080702000807020008070200089B
:10012000070200080702000807020008070200088B
:10013000070200080702000807020008070200087B
:10014000070200080702000807020008070200086B
:1001500000F002F800F03AF80AA090E8000C82449F
:100160008344AAF10107DA4501D100F02FF8AFF27C
:10017000090EBAE80F0013F0010F18BFFB1A43F085
:10018000010318476C0900008C090000103A24BFD5
:1001900078C878C1FAD8520724BF30C830C144BFEC
:1001A00004680C607047000000230024002500262E
:1001B000103A28BF78C1FBD8520728BF30C148BFCA
:1001C0000B6070471FB51FBD10B510BD00F068F87B
:1001D0001146FFF7F7FF00F023FC00F09AF803B494
:1001E000FFF7F2FF03BC00F007FC0000094880475E
:1001F00009480047FEE7FEE7FEE7FEE7FEE7FEE709
:10020000FEE7FEE7FEE7FEE704480549054A064B20
:1002100070470000E5060008510100088802002030
:100220008808002088040020880400200FB40449B6
:1002300010B503AA029800F009F810BC5DF814FB91
:10024000000000207047704770470000074B70B5F2
:100250000D467B4400F011F80446284600F0CEFB22
:1002600010B14FF0FF3070BD204670BDAF070000E9
:1002700001694A1C02610878704700B58FB0CDE96A
:1002800001310021059105497944CDE9031011465A
:10029000684600F02AF80FB000BD0000E5FFFFFF40
:1002A000754600F03FF8AE4605006946534620F01B
:1002B0000700854618B020B5FFF7A6FFBDE820402F
:1002C0004FF000064FF000074FF000084FF0000B12
:1002D00021F00701AC46ACE8C009ACE8C009ACE8C5
:1002E000C009ACE8C0098D4670472DE9F0410646CB
:1002F0000024D6E90170F5688046304603E04146A7
:10030000B847641C3046A8470028F8D12046BDE80D
:10031000F08110B50446AFF300802046BDE81040E0
:10032000FFF75DBF004870472402002000BFFEE7D2
:1003300010B50446204600F0A5FB10B9204600F099
:10034000A1FB10BD7047704770472DE9F041024690
:1003500000250026002000230024002791F803C078
:100360000CF00F0591F803C00CF0100CBCF1000F5D
:1003700003D091F802C04CEA050591F800C0BCF129
:10038000000F31D0146800202BE04FF0010C0CFA64
:1003900000F3B1F800C00CEA03069E4220D18300AE
:1003A0004FF00F0C0CFA03F7BC4305FA03FC4CEAC0
:1003B000040491F803C0BCF1280F06D14FF0010CE2
:1003C0000CFA00FCC2F814C00AE091F803C0BCF1BA
:1003D000480F05D14FF0010C0CFA00FCC2F810C018
:1003E000401C0828D1D31460B1F800C0BCF1FF0F45
:1003F00034DD546800202EE000F1080C4FF00108B5
:1004000008FA0CF3B1F800C00CEA03069E4221D1B1
:1004100083004FF00F0C0CFA03F7BC4305FA03FC02
:100420004CEA040491F803C0BCF1280F05D100F197
:10043000080C08FA0CF8C2F8148091F803C0BCF15B
:10044000480F07D100F1080C4FF0010808FA0CF82A
:10045000C2F81080401C0828CED35460BDE8F0815B
:1004600000BFFEE700BFFEE77047000070B5002147
:1004700000230F22C47804B3154C246804F4E0640C
:10048000C4F5E064210AC1F10403CA40447804FAC7
:1004900003F184781440214309010E4C0678A155DC
:1004A000047804F01F050124AC4005786D11AD00FF
:1004B00005F1E025C5F8004109E0047804F01F05C6
:1004C0000124AC40044D0678761145F8264070BDF5
:1004D0000CED00E000E400E080E100E07047000087
:1004E00029B1064AD2690243044BDA6104E0034AA7
:1004F000D2698243014BDA6170470000001002406C
:1005000029B1064A92690243044B9A6104E0034A06
:1005100092698243014B9A617047000000100240CB
:1005200030B500210022002400232D4D6D6805F018
:100530000C0121B1042905D0082923D105E0294D5A
:10054000056022E0274D05601FE0254D6D6805F42C
:100550007012234D6D6805F48034022505EB92423C
:100560001CB9214D554305600BE01D4D6D6805F428
:1005700000351DB11C4D5543056002E0194D554332
:10058000056002E0174D056000BF00BF144D6D68A7
:1005900005F0F0010909154D6B5C0568DD4045600B
:1005A0000F4D6D6805F4E061090A104D6B5C4568FC
:1005B000DD4085600A4D6D6805F46051C90A0B4D38
:1005C0006B5C4568DD40C560054D6D6805F44041D4
:1005D000890B074D6B5CC568B5FBF3F5056130BD54
:1005E0000010024000127A0000093D0008000020BF
:1005F00018000020704710B500F002F810BD000090
:100600000CB50020019000903348006840F4803021
:100610003149086000BF3048006800F400300090A5
:100620000198401C0190009818B90198B0F5A06F8E
:10063000F1D12948006800F4003010B10120009089
:1006400001E0002000900098012843D12348006871
:1006500040F01000214908600846006820F00300BF
:1006600008600846006840F0020008601A484068C8
:10067000194948600846406848600846406840F4A8
:10068000806048600846406820F47C104860084656
:10069000406840F4E81048600846006840F0807008
:1006A000086000BF0C48006800F000700028F9D016
:1006B0000948406820F00300074948600846406840
:1006C00040F00200486000BF0348406800F00C00A2
:1006D0000828F9D10CBD00000010024000200240A3
:1006E0007047000010B51348006840F00100114940
:1006F000086008464068104908400E4948600846AE
:1007000000680E4908400B4908600846006820F45C
:10071000802008600846406820F4FE0048604FF4DE
:100720001F008860FFF767FF4FF000600449086012
:1007300010BD0000001002400000FFF8FFFFF6FEB1
:1007400008ED00E008B526208DF8000000208DF8A7
:1007500001008DF8020001208DF803006846FFF7C4
:1007600085FE08BD10B586B0044601210520FFF7BF
:10077000C7FE01214804FFF7B3FE0420ADF81400C2
:1007800018208DF8170003208DF8160005A91948C8
:10079000FFF7DBFD0820ADF8140048208DF81700A6
:1007A00003208DF8160005A91248FFF7CEFD01942D
:1007B0000020ADF80800ADF80A00ADF80C00ADF867
:1007C00010000820ADF80E0001A90B4800F0A2F8B7
:1007D000FFF7B8FF0121084800F040F84021064823
:1007E00000F024F8012240F22661034800F06CF882
:1007F00006B010BD000801400044004008B540F2BA
:100800002661094800F036F868B140F226610648D2
:1008100000F015F8684600F013F920B19DF80010BB
:10082000014800F0E3F808BD0044004001F4007204
:10083000B2F5007F00D100BFCA430280704710B5F7
:100840000022002340F66A14A14200D100BF0A1220
:1008500001249440A3B2DC43048010BD21B18289FD
:1008600042F40052828104E082894DF6FF731A40FF
:100870008281704770B502460024002300250020C5
:1008800040F66A16B14200D100BFC1F3421501F033
:100890001F03012606FA03F3012D02D19689334086
:1008A00006E0022D02D1168A334001E0968A3340D9
:1008B0000C12012606FA04F41688344013B10CB168
:1008C000012000E0002070BDF0B5034600240026A2
:1008D0000025002040F66A17B94200D100BF184633
:1008E000C1F3421401F01F06012707FA06F5012C97
:1008F00001D10C3004E0022C01D1103000E01430A2
:100900001AB107682F43076002E00768AF4307602A
:10091000F0BD00002DE9F04786B005460E460024E4
:10092000A24600BFA1460027B08900B100BF2F46F4
:100930002C8A4CF6FF700440F08804432C82AC896A
:100940004EF6F3100440B08831890843718908439A
:100950000443AC81AC8A4FF6FF400440B0890443A5
:10096000AC8201A8FFF7DCFD1F48874202D1DDF809
:1009700010A001E0DDF80CA0A88900F4004040B10F
:100980000AEBCA0000EB0A1031684900B0FBF1F82D
:1009900007E00AEBCA0000EB0A1031688900B0FBDF
:1009A000F1F86420B8FBF0F004012009642101FB98
:1009B0001089A88900F4004040B1322000EBC90042
:1009C000B0FBF1F000F00700044308E0322000EB38
:1009D00009106421B0FBF1F000F00F0004432C81FA
:1009E00006B0BDE8F087000000380140C1F30802FE
:1009F0008280704700BFFEE700BF704701464FF09E
:100A0000FF30704770B504460D460A2C02D10D2008
:100A1000FFF78EFCE0B2FFF78BFC204670BD0000B4
:100A20004FF4E130FFF79EFE02A0FFF7FFFB00BF8F
:100A3000FEE7000046696E69736865640D0A000090
:100A400001460F48B0F800020D4AB2F80222904267
:100A50000FD00B48B0F80002094A105C087010462D
:100A6000B0F80002401CC0F30800A2F80002012008
:100A700070470020024A82F8040200BFF8E7000035
:100A80001C00002001B51848B0F80202401CC0F359
:100A900008001549B1F80012884222D09DF80000E4
:100AA0001149B1F80212104A50541046B0F802022F
:100AB000401CC0F308001146A1F80202084690F855
:100AC000040260B96846FFF7BBFF40B10120064948
:100AD00081F804029DF800100448FFF787FF012009
:100AE00008BD0020FCE700001C000020004400407E
:100AF000100B0008000000201C0000008C01000802
:100B00002C0B00081C0000206C080000A801000845
:100B100000000000000000000000000001020304CB
:0C0B20000102030406070809020406088D
:04000005080001519D
:00000001FF
